:020000040800F2
:10000000005000200D2900086D2900086D29000806
:100010006D2900086D2900086D2900080000000006
:100020000000000000000000000000006D29000832
:100030006D290008000000006D290008CF1D000890
:100040006D2900086D2900086D2900086D29000838
:100050006D2900086D290008BD1E0008C31E000898
:10006000C91E0008CF1E0008D51E00086D29000813
:100070006D2900086D2900086D2900086D29000808
:100080006D2900086D2900086D2900086D290008F8
:100090006D2900086D2900086D290008DB1E000885
:1000A0006D290008991B00086D290008AD1B000888
:1000B000B11B0008C51B0008D91B00086D290008EA
:1000C0006D2900086D2900086D2900086D290008B8
:1000D0006D29000869280008812800089D2800086B
:1000E000F11E00086D2900086D29000800000000BD
:1000F0000000000000000000000000000000000000
:0C01000000000000000000005FF808F1A3
:10010C00034613F8012B002AFBD1181A013870474B
:10011C0010B5054C237833B9044B13B10448AFF335
:10012C0000800123237010BD80000020000000001F
:10013C006035000808B5034B1BB103490348AFF306
:10014C00008008BD0000000084000020603500081D
:10015C00012A02D1016000207047022A05D0032A2F
:10016C00F9D0002AF7D10260F5E70B680360F2E7DB
:10017C0003681847A0F1C8039BB2502B05D8034B5A
:10018C008038C1B2186800F013BB7047B40000206F
:10019C0008B50121102002F0B7FD01210F2002F05B
:1001AC00B3FD01210E2002F0AFFD01210D2002F064
:1001BC00ABFD01211F2002F0A7FD01211E2002F042
:1001CC00A3FDBDE808400021C92002F09DBD08B583
:1001DC000021102002F098FD01210F2002F094FD67
:1001EC0001210E2002F090FD00210D2002F08CFD6B
:1001FC0000211F2002F088FD00211E2002F084FD4A
:10020C00BDE808400021C92002F07EBD08B50121DF
:10021C00102002F079FD01210F2002F075FD002164
:10022C000E2002F071FD01210D2002F06DFD012167
:10023C001F2002F069FD00211E2002F065FDBDE8C3
:10024C0008400121C92002F05FBD08B50121102032
:10025C0002F05AFD01210F2002F056FD01210E2063
:10026C0002F052FD01210D2002F04EFD00211F2055
:10027C0002F04AFD00211E2002F046FDBDE80840B8
:10028C000121C92002F040BD08B50021102002F068
:10029C003BFD01210F2002F037FD01210E2002F061
:1002AC0033FD00210D2002F02FFD00211F2002F054
:1002BC002BFD01211E2002F027FDBDE80840012185
:1002CC00C92002F021BD08B50121102002F01CFD4F
:1002DC0000210F2002F018FD01210E2002F014FD68
:1002EC0001210D2002F010FD00211F2002F00CFD59
:1002FC0001211E2002F008FDBDE808400121C920A3
:10030C0002F002BD08B50121102002F0FDFC002115
:10031C000F2002F0F9FC01210E2002F0F5FC012166
:10032C000D2002F0F1FC01211F2002F0EDFC012157
:10033C001E2002F0E9FCBDE808400121C92002F0B2
:10034C00E3BC08B50121102002F0DEFC01210F20D6
:10035C0002F0DAFC01210E2002F0D6FC00210D2067
:10036C0002F0D2FC00211F2002F0CEFC00211E2046
:10037C0002F0CAFCBDE808400021C92002F0C4BC50
:10038C0008B50121102002F0BFFC01210F2002F062
:10039C00BBFC01210E2002F0B7FC01210D2002F064
:1003AC00B3FC01211F2002F0AFFC01211E2002F042
:1003BC00ABFCBDE808400121C92002F0A5BC08B582
:1003CC000121102002F0A0FC01210F2002F09CFC66
:1003DC0001210E2002F098FC01210D2002F094FC6A
:1003EC0000211F2002F090FC01211E2002F08CFC49
:1003FC00BDE808400121C92002F086BC08B50220E6
:10040C0002F0BCFC48B9054B1860054B1A68022A6F
:10041C00CEBF01221A6801321A6008BDB00000205C
:10042C00A80000200346012B084609D1A1F1320394
:10043C009BB2322B13D80A4BC9B2186800F0B8B96A
:10044C00022B08D1A1F596739BB2642B07D801310E
:10045C00044BC9B2F1E7032B01D1FFF78BBE7047F8
:10046C00BC000020B800002038B5002002F086FC4B
:10047C00003818BF0120164D164C2870012002F0D0
:10048C007DFC237898420CBF01204FF0FF30124BBB
:10049C001A6802441A60114A106801280AD11B68B4
:1004AC000F4A1168194409B2FFF7BCFF2B78DBB275
:1004BC00237038BD10681B68022801D1094AF0E787
:1004CC00094A1068184400B2FFF754FEEEE700BF6B
:1004DC00AD000020AC000020B0000020A8000020DF
:1004EC00A4000020A00000209C000020012808B5DA
:1004FC0004D10C4B186800F023F908BD022806D172
:10050C00094B186800F01CF9FF3080B2F5E703289E
:10051C0005D1064B186800F013F98030F5E7002080
:10052C00EBE700BFBC000020B8000020B4000020A6
:10053C0030B540B285B0FFF7D9FF0A22014601A8B9
:10054C0002F01DFB0024039BA34204D801A802F077
:10055C00C3FA05B030BD019B1D5DA4B92146032033
:10056C0002F0D2FB0121042002F0CEFB0121052078
:10057C0002F0CAFB302D1AD1FFF70AFE022002F05E
:10058C0035FC0134DFE7012C05D12146032002F0B4
:10059C00BBFB0021E7E7022CECD10121032002F088
:1005AC00B3FB0121042002F0AFFB0021DFE7313D5A
:1005BC00082DE3D8DFE805F005080B0E1114171A07
:1005CC001D00FFF704FED9E7FFF720FED6E7FFF783
:1005DC003CFED3E7FFF758FED0E7FFF774FECDE7FC
:1005EC00FFF790FECAE7FFF7ACFEC7E7FFF7C8FEC0
:1005FC00C4E7FFF7E4FEC1E708B5FFF7FFFE0C20E8
:10060C0002F0F4FB064B1868012803D1BDE8084042
:10061C00FFF78EBF1868022818BF0320F6E700BF4B
:10062C00A80000201FB50121102002F00FFB0121B2
:10063C000F2002F00BFB01210E2002F007FB012121
:10064C000D2002F003FB01211F2002F0FFFA012113
:10065C001E2002F0FBFA0121C92002F0F7FA012159
:10066C00052002F0F3FA0121042002F0EFFA012137
:10067C00032002F0EBFA0221002002F0E7FA02213B
:10068C00012002F0E3FA0221084602F0DFFA01220F
:10069C00144B1A60144B186800F052F8134B186086
:1006AC000220FFF723FF124B1860124B186800F062
:1006BC0047F8114B803080B2186000200F4B02229B
:1006CC0000930F4B694603930E4B0190029302F07B
:1006DC0087F9029B1BB1694603220846984705B06F
:1006EC005DF804FBA8000020BC000020A400002042
:1006FC00A0000020B40000209C000020750400081D
:10070C007D0100085D0100080022044B1A600122E3
:10071C00034B1A600222034B1A607047BC00002086
:10072C00B8000020B400002008B54FF480620249E4
:10073C00024802F061FE08BD00FC0108C000002068
:10074C0010B50446FFF7F0FF014B185D10BD00BF5C
:10075C00C0000020002370B586B0CDE90133012321
:10076C000F4C0593CDE9033400F098F9B0B940F281
:10077C0015120C4B01A9DA6002A800F039FA58B92D
:10078C00094D0A4E2146F5E80223032000F0CCF96E
:10079C0010B90834B442F5D100F092F906B070BD2E
:1007AC0000FC010800200240C000002000000208EC
:1007BC00014B1954FFF7CEBFC0000020704700005A
:1007CC0038B50E4B05461A784FF47A73B3FBF2F337
:1007DC000B4A1068B0FBF3F000F09CF8044658B9D3
:1007EC000F2D09D8024629464FF0FF3000F042F891
:1007FC002046044B1D6038BD0120FCE700000020A2
:10080C002400002004000020074A08B513680320C8
:10081C0043F01003136000F01BF80020FFF7D0FF2B
:10082C00FFF7CCFF002008BD00200240034A044B18
:10083C0011681B780B441360704700BFC004002084
:10084C0000000020014B1868704700BFC004002056
:10085C0007490302CA6803F4E06322F4E06212045D
:10086C00120C134343F0BF6343F40033CB60704767
:10087C0000ED00E0154B30B5DC68C4F30224C4F184
:10088C000703251D042B28BF0423062D4FF0FF352D
:10089C0094BF0024033C05FA03F321EA0303A540AB
:1008AC0022EA0502A340002843EA0203ACBF00F190
:1008BC006040074A4FEA0313DBB2ABBF00F561405F
:1008CC0000F00F0080F80033135430BD00ED00E051
:1008DC0014ED00E0002807DB01234109034A00F076
:1008EC001F00834042F82130704700BF00E100E058
:1008FC0000280CDB01220649430900F01F0082404E
:10090C00203341F82320BFF34F8FBFF36F8F704715
:10091C0000E100E00138B0F1807F0BD24FF0E02312
:10092C00F021054A586182F82310002007229861B3
:10093C001A6170470120704700ED00E0002808DBC9
:10094C0001224309034900F01F008240603341F843
:10095C002320704700E100E0704708B5FFF7FCFF6B
:10096C0008BD704710B5044650B1437903F0FF023F
:10097C0013B90271FFF7F5FF01230020637110BD5D
:10098C000120FCE790F821200346022A06D004221D
:10099C0082630120002283F8202070470268C06B1C
:1009AC00116821F00E011160116821F00101116034
:1009BC0001211A6C01FA02F24260002083F8211026
:1009CC00E8E7000008B590F82130022B03D004238F
:1009DC008363012008BD03681A6822F00E021A60B6
:1009EC001A6822F001021A60164A93421CD0143283
:1009FC0093421BD0143293421AD0143293421AD021
:100A0C00143293421AD01432934214BF4FF08073B5
:100A1C004FF480130C4A53604FF480730384436B80
:100A2C0003B198470020D5E70123F3E71023F1E742
:100A3C004FF48073EEE74FF48053EBE74FF48033C1
:100A4C00E8E700BF0800024000000240114AD368EA
:100A5C0013F0100305D01049CB6943F00203CB61AE
:100A6C001023D268500706D50B4943F00403CA691A
:100A7C0042F00102CA61074AD169C90708D5064884
:100A8C00C16941F00401C161D16921F00101D16159
:100A9C00D360704700200240C8040020064B186940
:100AAC0010F0800007D0054A5A6002F188325A6073
:100ABC001869C0F3C010704700200240230167453D
:100ACC00034A0020136943F080031361704700BF91
:100ADC000020024070B50546FFF7B4FE0646114CE7
:100AEC00E368D80712D4E368990644BF2023E36077
:100AFC00E368DA0606D4E369DB0703D4E06810F098
:100B0C00040007D0FFF7A2FF012003E06B1CE7D025
:100B1C000DB9032070BDFFF795FE801BA842DFD9ED
:100B2C00F7E700BF002002402DE9F84FDFF894A052
:100B3C001F469AF818300546012B884691463FD03F
:100B4C0001234CF250308AF81830FFF7C3FF90BBEA
:100B5C00012D03D0022D14BF042502250026334697
:100B6C00DFF864B03401C4F12001A4F1200207FACB
:100B7C0001F129FA04F4CAF81C300C4327FA02F2EA
:100B8C001443DBF81020A4B242F00102CBF8102081
:100B9C004CF2503028F81640FFF79CFFDBF8102081
:100BAC0022F00102CBF8102028B90136F2B295429E
:100BBC004FF00003D6D800238AF81830BDE8F88F20
:100BCC000220FBE7C8040020002002400022064B54
:100BDC00DA61064B1A6942F002021A6158611A690D
:100BEC0042F040021A617047C80400200020024005
:100BFC002DE9F041264F05463B7E8846012B44D01B
:100C0C0001243C7603684CF25030022B1AD1FFF7CA
:100C1C0061FF20B1012000233B76BDE8F0811D4C23
:100C2C00F86123694CF2503043F0040323612369CB
:100C3C0043F040032361FFF74DFF236923F00403C6
:100C4C002361E8E7FFF746FF0028E3D14FF0FF33BD
:100C5C00C8F800302046AE680E4CD5E9023203EBE2
:100C6C008223B342D7D93046FFF7B0FF4CF2503055
:100C7C00FFF730FF236923F00203236110B1C8F89A
:100C8C000060C8E706F58066E7E70220C5E700BF0D
:100C9C00C8040020002002402DE9F74F002426460E
:100CAC00DFF888C1624BDFF88CE1DFF88C810A68D1
:100CBC0032FA06F502D103B0BDE8F08F0127B74038
:100CCC0002EA070537EA02027AD14A68032A07D8F2
:100CDC00013A022A00F28380DFE802F092979D002D
:100CEC00122A00F095806DD8112A00F08B80FF2D10
:100CFC0098BF81464FF00F0B88BF00F104094FEAF3
:100D0C008602D9F8007088BF203A0BFA02FA27EA5B
:100D1C000A0704FA02F21743C9F80070D1F80490DC
:100D2C0019F0805F4CD0DCF8182026F0030742F055
:100D3C000102CCF81820DCF8182007F1804702F0EB
:100D4C000102019207F5803706F0030A019A4FEA77
:100D5C008A0ABA680BFA0AFB22EA0B0B374A904252
:100D6C005DD002F5806290425BD002F580629042C9
:100D7C0059D002F58062904214BF0422032202FA79
:100D8C000AF242EA0B02BA601A6819F4803F14BFE7
:100D9C002A43AA431A605A6819F4003F14BF2A4325
:100DAC00AA435A609A6819F4801F14BF2A43AA43B5
:100DBC009A60DA6819F4001F14BF2A43AA43DA6058
:100DCC00013674E7DFF878904A4508D010D8A9F5B9
:100DDC0080194A4503D0724501D0424587D18A68B3
:100DEC00DAB1012A4FF008040CBF076147617EE7B6
:100DFC00DFF850904A45F2D009F580394A45EDE7C5
:100E0C00CC6874E7CC68043471E7CC6808346EE7BE
:100E1C00CC680C346BE7002469E7042467E70022F4
:100E2C00ADE70122ABE70222A9E700BF00100240A8
:100E3C0000040140000021100000111000080140C6
:100E4C000000221000003110044A08B5516901421B
:100E5C0002D0506101F016F808BD00BF000401403B
:100E6C002DE9F341054638B30368DB0710D42B6832
:100E7C009F075ED42B68190700F195802B685A07E1
:100E8C0000F1C180EB69002B40F02C81002029E09F
:100E9C00904C636803F00C03042B07D0636803F0D9
:100EAC000C03082B0AD16368DE0307D523689C0367
:100EBC00DDD56B68002BDAD1012013E06B68B3F53C
:100ECC00803F12D1236843F480332360FFF7BAFCD0
:100EDC00064623689803CAD4FFF7B4FC801B642829
:100EEC00F7D9032002B0BDE8F0819BB9236823F445
:100EFC0080332360236823F480232360FFF7A2FC54
:100F0C00064623689903B2D5FFF79CFC801B642826
:100F1C00F7D9E6E7B3F5A02F236803D143F4802378
:100F2C002360CFE723F480332360236823F48023EA
:100F3C00CBE7684C636813F00C0F07D0636803F0C1
:100F4C000C03082B10D16368DA030DD423689B07BC
:100F5C0002D52B69012BAFD123686A6923F0F80302
:100F6C0043EAC203236085E72A695B4B6AB101221D
:100F7C001A60FFF767FC064623689F07ECD4FFF75F
:100F8C0061FC801B0228F7D9ABE71A60FFF75AFC0B
:100F9C000646236898077FF56DAFFFF753FC801B5F
:100FAC000228F6D99DE7AA694A4E4B4BE2B10122C1
:100FBC00C3F88024FFF746FC0446736A9B070DD5E3
:100FCC004FF4FA52454B1B68B3FBF2F3019300BF8D
:100FDC00019B5A1E0192002BF9D14FE7FFF732FC0F
:100FEC00001B0228E9D97CE7C3F88024FFF72AFC10
:100FFC000446736A9F077FF541AFFFF723FC001B84
:10100C000228F6D96DE7334CE369D80024D40127C4
:10101C00E36943F08053E361E36903F08053009389
:10102C00009B2F4E3368D90518D5EB68012B26D1C0
:10103C00236A43F001032362FFF704FC41F2883872
:10104C000646236A9B073FD5002F3FF41BAFE3698D
:10105C0023F08053E36115E70027E2E7336843F49C
:10106C0080733360FFF7EEFB80463368DA05DCD41F
:10107C00FFF7E8FBA0EB08006428F6D931E7ABB921
:10108C00236A41F2883823F001032362236A23F098
:10109C0004032362FFF7D6FB0646236A9807D3D5D1
:1010AC00FFF7D0FB801B4045F7D91AE7052B236AC5
:1010BC0003D143F004032362BAE723F00103236254
:1010CC00236A23F00403B6E7FFF7BCFB801B404503
:1010DC00B7D906E70010024000004242240000206D
:1010EC00007000402A4C626802F00C02082A3ED0C4
:1010FC000022022B274B1A662CD1FFF7A3FB0646C6
:10110C002368990120D42B6AB3F5803F05D162681E
:10111C00A96822F400320A436260696A62680B4370
:10112C0022F474121343012263601A4B1A66FFF700
:10113C0089FB054623689A013FF5A8AEFFF782FBB1
:10114C00401B0228F6D9CCE6FFF77CFB801B02285B
:10115C00D6D9C6E6FFF776FB054623689B017FF5DB
:10116C0095AEFFF76FFB401B0228F6D9B9E6012BB1
:10117C003FF4A2AE60682B6A00F480329A427FF48E
:10118C009BAE6B6A00F47010C01A18BF0120A9E660
:10119C00001002400000424230B5184B87B002AC40
:1011AC0003F11005224618685968083303C2AB4294
:1011BC001446F7D140F201231149ADF804304B68C5
:1011CC0003F00C02082A17D1C3F3834218326A4485
:1011DC00DB0312F8100C0CD54B680A4AC3F34043DE
:1011EC00504318336B4413F8143CB0FBF3F007B0C6
:1011FC0030BD054B5843FAE70248F8E7783500084C
:10120C000010024000127A0000093D002DE9F04167
:10121C000D46044610B90120BDE8F081444A13681C
:10122C0003F007038B4228D321688E0730D4CA07FA
:10123C0043D43F4A136803F00703AB4265D82268D6
:10124C003C4D12F0040F6CD1130706D56B68226964
:10125C0023F4605343EAC2036B60FFF79DFF6B6896
:10126C00354AC3F30313D35CD840344B1860344B6A
:10127C001868FFF7A5FA0020CEE7136823F00703E0
:10128C000B431360136803F007038B42C3D1CBE706
:10129C00284B11F0040F1EBF5A6842F4E0625A60EA
:1012AC00080742BF5A6842F460525A605A68A068F4
:1012BC0022F0F00202435A60B9E762681D4E012A1F
:1012CC0033681AD113F4003FA5D0736841F2883803
:1012DC0023F0030313437360FFF7B4FA07467368F4
:1012EC00626803F00C03B3EB820FA2D0FFF7AAFAEB
:1012FC00C01B4045F3D903208EE7022A02D113F01C
:10130C00007FE1E713F0020FDEE7136823F0070319
:10131C002B431360136803F00703AB427FF47BAFDE
:10132C008DE76B68E16823F4E0630B436B608BE73C
:10133C000020024000100240CC35000824000020A0
:10134C000400002003682DE9F3410546D80721D598
:10135C00364CE369D9002BD40126E36943F0805362
:10136C00E361E36903F080530193019B304F3B68C9
:10137C00DA051FD5236A6A6813F440732ED1236AE9
:10138C006A6823F44073134323621EB1E36923F0AC
:10139C008053E3612A68910706D52449A8684B68F5
:1013AC0023F4404303434B60D30636D4002012E0B1
:1013BC000026DBE73B6843F480733B60FFF742FA9F
:1013CC0080463B68DB05D5D4FFF73CFAA0EB080060
:1013DC006428F6D9032002B0BDE8F08102F4407213
:1013EC009A42CCD00120134A236AC2F84004002050
:1013FC0023F44071DF07C2F840042162BFD5FFF728
:10140C0021FA41F288380746236A9807B7D4FFF7C8
:10141C0019FAC01B4045F7D9DCE7044AE968536860
:10142C0023F480030B435360C0E700BF001002405D
:10143C00007000400000424270477047036810B5CE
:10144C001A69044691070ED5DA6892070BD56FF02E
:10145C0002021A61012202779B699B0777D000F088
:10146C0024FC0023237723681A69500710D5DA6807
:10147C0051070DD56FF004021A61022222779B6985
:10148C00204613F4407F68D000F00FFC0023237734
:10149C0023681A6912070FD5DA6810070CD56FF09C
:1014AC0008021A6104222277DB69204699075AD078
:1014BC0000F0FBFB0023237723681A69D20610D5B2
:1014CC00DA68D0060DD56FF010021A610822227767
:1014DC00DB69204613F4407F4BD000F0E6FB002381
:1014EC00237723681A69D10708D5DA68D20705D59E
:1014FC006FF0010220461A6100F0B4FB23681A69F0
:10150C00100608D5DA68110605D56FF08002204662
:10151C001A6100F08CF823681A69520608D5DA684B
:10152C00500605D56FF0400220461A61FFF785FF83
:10153C0023681A69910622D5DA6892061FD56FF0D6
:10154C0020022046BDE810401A6100F06FB800F090
:10155C00AAFB2046FFF770FF83E700F0A4FB2046B0
:10156C00FFF76AFF92E700F09EFB2046FFF764FF4F
:10157C00A0E700F098FB2046FFF75EFFAFE710BD39
:10158C00134A036890420AD0B0F1804F07D0A2F5FD
:10159C009432904203D002F58062904207D14A689F
:1015AC0023F070031343CA6823F4407313434A694E
:1015BC0023F08003134303608B68C3620B68836260
:1015CC00034B984204BF0B690363012343617047CB
:1015DC00002C014010B5044630B390F83D3003F0B8
:1015EC00FF021BB980F83C2001F06CF80223206844
:1015FC0084F83D30211DFFF7C3FF0123002084F840
:10160C00463084F83E3084F83F3084F8403084F81B
:10161C00413084F8423084F8433084F8443084F804
:10162C00453084F83D3010BD0120FCE77047704711
:10163C000368DA6822F49072DA605A6922F00102C7
:10164C005A61026B012A02BFDA6822F01002DA60DA
:10165C00202380F83E3000230363704790F83D3020
:10166C00202B18D1A9B1A2B190F83C30012B12D08B
:10167C00C28400238284212201620168036480F801
:10168C003C3080F83D20CA68184642F08002CA609F
:10169C007047012070470220704708B50023406A4C
:1016AC00C385C38401F09CF808BD704790F83E30A8
:1016BC0007B5222B37D181680268B1F5805F836A48
:1016CC0034D10169002934D15268C2F3080223F8DD
:1016DC00022BC28D8362013A92B2C2851ABB036897
:1016EC00D96821F02001D960D96821F48071D960C2
:1016FC00596921F001015961202180F83E10016BDC
:10170C00012920D10263D96821F01001D960196830
:10171C00C90605D501921A6801925B680193019B79
:10172C00818DFFF7C2FF03B05DF804FB39B9016985
:10173C0029B95268D2B21A70836A0133C9E7526868
:10174C0002F07F02F7E701F045F8ECE7036837B5E4
:10175C001A68044612F00F0FD9685D6909D1950615
:10176C0040F182808D067FD503B0BDE83040FFF795
:10177C009DBF15F0010543D012F0010F02F00403D8
:10178C005BD11BB1236C43F002032364900741D55A
:10179C00236C12F0080F43F00403236403D0236C72
:1017AC0043F008032364236C002B57D0920604D516
:1017BC008B0602D52046FFF779FF216820464B693E
:1017CC00226C03F0400302F0080253EA020547D0F2
:1017DC00FFF72EFF4B695D063DD54B69A06B23F0DF
:1017EC0040034B61002836D0694B4363FFF7EAF89E
:1017FC00002833D0A06B436B03B0BDE830401847D2
:10180C0011F4907F30D012F0010F02F0040307D1D5
:10181C0093070DD41007C6D501F020032B43BDE769
:10182C00C8050FD4002BF3D19307F3D5002DAFD1FE
:10183C001507B8D511F0200FB0E7C80502D4002B5E
:10184C00A0D1F1E7236C500743F001032364EBD5DF
:10185C00002DDDD096E7204600F0C2FF03B030BD6E
:10186C0000F0BEFF2564F9E7206B012855D1D006A6
:10187C0053D5CD0651D5002101911A6801925A68B1
:10188C000192019A5A6912F040022AD0A06B0268A8
:10189C00526892B2002AE1D0A58D9542DED9E2853C
:1018AC008269202A15D0DA6822F48072DA605A69CB
:1018BC0022F001025A615A6922F040025A61202238
:1018CC0084F83E202163DA6822F01002DA60FFF718
:1018DC0059F8E38DA18DC91A89B22046FFF7E5FEB0
:1018EC00BCE7E08DE58DA18DADB280B2002DB5D0F9
:1018FC00091A89B20029B1D0D86820F49070D86048
:10190C00586920F001005861202084F83E002263C1
:10191C00DA6822F01002DA60DFE7100626D50D0631
:10192C0024D594F83D20212A98D1A168226AB1F5DA
:10193C00805F16D12169A1B932F8021BC1F30801ED
:10194C0059602262E28C013A92B2E284002A85D17B
:10195C00DA6822F08002DA60DA6842F04002DA607B
:10196C007CE7511C216212785A60EBE750067FF538
:10197C0075AF4A067FF572AFDA68204622F0400256
:10198C00DA60202384F83D3000F027FF66E700BFC3
:10199C00A716000890F83C30012B11D024230268C4
:1019AC0080F83D30D36823F00C0343F00803D36078
:1019BC00202380F83D30002380F83C3018467047D7
:1019CC000220704790F83C30012B11D02423026880
:1019DC0080F83D30D36823F00C0343F00403D3604C
:1019EC00202380F83D30002380F83C3018467047A7
:1019FC000220704790F83D2090F83E00104370474D
:101A0C00C28582858162034622220020186483F8F5
:101A1C003C0083F83E201B68DA6842F48072DA607E
:101A2C005A6942F001025A61DA6842F02002DA6027
:101A3C00704770B490F83E60202E0DD149B142B180
:101A4C0090F83C40012C07D00024046370BCFFF7D5
:101A5C00D7BF012070BC70470220FBE7836810B52C
:101A6C0004462BB10322014698470023C4E90233F4
:101A7C0010BD836810B5044613B103220146984784
:101A8C00204610BD0C4A034690420ED0B0F1804F58
:101A9C000DD0A2F5943290420BD04FF6FF7002F5A8
:101AAC008062934208BF03207047002070470120DA
:101ABC0070470220704700BF002C0140014670B5F2
:101ACC00044651F8100FFFF7DDFF0546084600F0FD
:101ADC008BFD0023084A04F1600642F82530E360D0
:101AEC0004F1B005B54204D0103D2846FFF7C1FF04
:101AFC00F8E7204670BD00BFE8040020F8B50446A6
:101B0C000846FFF7BFFF4FF6FF73984200D1FEE780
:101B1C00236903B1FEE71C4D04F10C0245F82020AB
:101B2C000E2204F110063046C4E90C33C4E90E331E
:101B3C00C4E91033C4E91623216184F82C30A36462
:101B4C0084F84C3084F84D30E46000F009FD04F169
:101B5C00600504F1B00728461035FFF77FFFBD4242
:101B6C00F9D100234FF6FF72C4E90033C4E9063201
:101B7C00C4E90833A360636180233046A362BDE8E7
:101B8C00F840FFF727BD00BFE8040020034B18689E
:101B9C0010B10430FFF752BC704700BFE8040020BE
:101BAC00FFF7F4BF034B586810B10430FFF746BC85
:101BBC00704700BFE8040020034B986810B1043054
:101BCC00FFF73CBC704700BFE8040020034BD8680B
:101BDC0010B10430FFF732BC704700BFE80400209E
:101BEC000022C0E90022C0E902227047F8B5044681
:101BFC000E4600F1600500F1B00728461035FFF7DE
:101C0C00EFFFBD42F9D10023204631462361FFF797
:101C1C0075FF2046F8BD38B50023C0E90033C0E994
:101C2C0002338B6804460D462BB102229847EB68B1
:101C3C00E360AB68A360204638BD826810B50AB972
:101C4C0001F084FCC368BDE81040184708B500B922
:101C5C00FEE700F083FC0068836E13B16030FFF781
:101C6C00ECFF08BDFFF7F2BF10B500B9FEE7037F2C
:101C7C00013B072B10D8DFE803F004140F100F0FF3
:101C8C000F12012400F06AFC0068063400EB04100B
:101C9C0083680BB1FFF7D1FF10BD0324F2E70424D6
:101CAC00F0E70224EEE7FFF7DFBFFFF7DDBF01F03F
:101CBC0071BA01F077BA000086B0042841D8DFE889
:101CCC0000F003101C2834001F4B20489A6942F086
:101CDC0004029A619B6903F004030193019B06B013
:101CEC007047194B1A489A6942F008029A619B692D
:101CFC0003F008030293029BF1E7134B15489A6912
:101D0C0042F010029A619B6903F010030393039B4A
:101D1C00E5E70D4B10489A6942F020029A619B69E5
:101D2C0003F020030493049BD9E7074B0B489A69F3
:101D3C0042F040029A619B6903F040030593059BB6
:101D4C00CDE70020CBE700BF0010024000080140A7
:101D5C00000C01400010014000140140001801402B
:101D6C00F8B51449074600F0BCFBFFF78BFE124E8A
:101D7C00044656F8203073B9B020FFF798FF0D4990
:101D8C000546384600F0ADFB01462846FFF72EFF0E
:101D9C0056F824301D6056F824301C6844B1204697
:101DAC00FFF78CFE2046BDE8F840B021FFF781BF5D
:101DBC00F8BD00BF54360008E8040020FEF742BD11
:101DCC00704708B5FEF732FDFEF7C7FDFFF7F8FFC9
:101DDC0008BD70470F4B84B0DA6942F08052DA616B
:101DEC00DA6902F080520192019A9A6942F001027A
:101DFC009A619A6902F001020292029A5A6942F0BF
:101E0C0040025A615B6903F040030393039B04B0E7
:101E1C00704700BF001002400C4BD3F8FC20D201DD
:101E2C005EBFD3F8FC2042F08072C3F8FC20002285
:101E3C00074B5A601A6842F001021A6000BF00BFDB
:101E4C0000BF5868B0FA80F04009704700ED00E020
:101E5C00001000E008B5FFF7BDFFFFF7DDFFFEF750
:101E6C00D3FCFFF7B6FF00F07DFDBDE8084001484C
:101E7C00FEF778BD1C0000200023C0E90033C0E948
:101E8C00023370470023012803F101020AD1142206
:101E9C00DBB25343054A181D1044816829B11A441A
:101EAC001369184713464008EDE77047F804002003
:101EBC000120FEF7C9BF0220FEF7C6BF0420FEF7C3
:101ECC00C3BF0820FEF7C0BF1020FEF7BDBF38B55A
:101EDC0005242025A8B2FEF7B7FF013C4FEA4505C3
:101EEC00F8D138BD38B506244FF48065A8B2FEF79A
:101EFC00ABFF013C4FEA4505F8D138BD2DE9F04167
:101F0C00174600240A468AB0012A04F101050CD1B7
:101F1C00FF29CDE902130BD8012902464FF000032B
:101F2C000FD01D464FF0010C0FE02C465208EBE78A
:101F3C000023021DF5E70CFA03FE8E4506D1FF299E
:101F4C0001D89D00EEE79D00203D1E460133102B6D
:101F5C00F1D10F231268AB4013400822AA409342E0
:101F6C0040D10123C268B34093430CBF0123022329
:101F7C000493032302A90593FEF78EFE142306ADEA
:101F8C0039462846E4B25C43FFF745FE95E803006A
:101F9C006A46DFF8548082E8030008EB040304333C
:101FAC0093E8030085E8030092E8030083E803004C
:101FBC00261D089B4644B268B360099B0892F268E0
:101FCC002846F3600992FFF754FD0022062118F908
:101FDC000400FEF74FFC18F90400FEF77BFC0AB076
:101FEC00BDE8F0810023C3E7F8040020344A08B5AB
:101FFC001046062300F8043BFFF73EFF072302F1CF
:10200C0018001375FFF738FF082302F12C0082F833
:10201C002830FFF731FF092302F1400082F83C30F1
:10202C00FFF72AFF0A23172102F1540082F85030DF
:10203C00FFF722FF02F1680082F86410FFF71CFF23
:10204C0002F17C0082F87810FFF716FF02F1900085
:10205C0082F88C10FFF710FF02F1A40082F8A01098
:10206C00FFF70AFF82F8B410282102F1B800FFF73D
:10207C0003FF02F1CC0082F8C810FFF7FDFE02F15D
:10208C00E00082F8DC10FFF7F7FE02F1F40082F8B2
:10209C00F010FFF7F1FE02F5847082F80411FFF7DF
:1020AC00EBFE02F58E7082F81811FFF7E5FEBDE825
:1020BC00084002F5987082F82C11FFF7DDBE00BFC6
:1020CC00F804002038B5054CA4F5A075143C201D6F
:1020DC00FFF7CFFCAC42F9D138BD00BF3806002069
:1020EC007B4B82B09A69013842F001029A619B697C
:1020FC0003F001030193019B23282CD8DFE810F097
:10210C0024002D0034003B00400047004C005300DD
:10211C0058005F0068006D0074007D00820089002B
:10212C0092009B00A000A700B000B500BC002B00E3
:10213C002B002B00C100C8002B002B002B002B0008
:10214C00CD00D200D900E000624A536843F0E0634E
:10215C0043F00103536002B070475E4A536823F0AA
:10216C00010343F0E063F5E75A4A536843F0E06338
:10217C0043F00203EEE7574A536823F00203F0E7FB
:10218C00544A536843F0E06343F00403E2E7514AD6
:10219C00536823F00403E4E74E4A536843F0E063CA
:1021AC0043F00803D6E74B4A536823F00803D8E7FB
:1021BC00484A536843F0E06343F03003CAE7454AAA
:1021CC00536823F0300343F0E06343F01003C1E79E
:1021DC00404A536823F03003C3E73E4A536843F048
:1021EC00E06343F0C003B5E73A4A536823F0C003F9
:1021FC0043F0E06343F04003ACE7364A536823F006
:10220C00C003AEE7334A536843F0E06343F44073D2
:10221C00A0E7304A536823F4407343F0E06343F47F
:10222C00007397E72B4A536823F4407343F0E06341
:10223C0043F480738EE7274A536823F4407390E786
:10224C00244A536843F0E06343F4406382E7214A35
:10225C00536823F4406343F0E06343F4006379E78D
:10226C001C4A536823F440637BE71A4A536843F0D3
:10227C00E06343F480536DE7164A536823F48053AC
:10228C006FE7144A536843F0E06343F4004361E79B
:10229C00104A536823F4004363E70E4A536823F053
:1022AC00E06357E70B4A536823F0E06343F0807315
:1022BC0050E7084A536823F0E06343F0007349E7A2
:1022CC00044A536823F0E06343F0806342E700BFA5
:1022DC00001002400000014091FAA1F3B3FA83F31D
:1022EC0070B50D0E0F2691FAA1F1B1FA81F1445996
:1022FC009B0006FA03F3890024EA03048A40224374
:10230C00425170BD91FAA1F3B3FA83F370B50D0E7F
:10231C00042691FAA1F1B1FA81F144599B0006FA15
:10232C0003F3890024EA03048A402243425170BD1E
:10233C00431C04D00C3151F80C3C5A1C01D1002028
:10234C007047834201F10C01F5D101207047000068
:10235C00431C2DE9F34106460F4600D1FEE7584BCE
:10236C0000F00F02C0F3031001F0070853F82250DD
:10237C00FFF7A2FCB8F1010F044615D195FAA5F3AD
:10238C00B3FA83F30321280E22589B0001FA03F3BE
:10239C0022EA030295FAA5F3B3FA83F39B00994062
:1023AC001143215001223BE0C7F30620B8F1030F83
:1023BC000AD801A353F828F0D7230008B12300084A
:1023CC002324000845240008FEE7FFF789FE0822B5
:1023DC0029462046FFF780FF95FAA5F22B0EB2FA9C
:1023EC0082F2E1580F239200934095FAA5F2B2FACB
:1023FC0082F2C7F301170B409200012F23FA02F36C
:10240C001CD0022F45D0082B2BD104222946204664
:10241C00FFF762FF25E07F2801D0FFF761FE09225C
:10242C0029462046FFF758FF17F0080218BF042270
:10243C002946FFF767FFCFE70022C9E7042B04D139
:10244C00082229462046FFF747FF01232A0A92FA61
:10245C00A2F2B2FA82F2E168934021EA15210B4311
:10246C00E360184B9A6942F001029A619B6903F090
:10247C0001030193019BA6F10D03012B14D8124A01
:10248C00536823F0E06343F08063536002B0BDE80F
:10249C00F081042B04D1082229462046FFF71CFFAB
:1024AC00E36823EA1523DBE70F2E02D0133E012E3F
:1024BC00ECD8054A536823F0E06343F00073E4E77B
:1024CC008C35000800100240000001400B685A1CBB
:1024DC0001D100207047834201D1486870470C310C
:1024EC00F4E7431C01D0FFF7F1BF002070474B68A5
:1024FC0013B94FF0FF307047834201D10868704721
:10250C000C31F4E708B1FFF7F2BF4FF0FF30704722
:10251C000F4B1A6842F001021A6059680D4A0A40C2
:10252C005A601A6822F0847222F480321A601A6897
:10253C0022F480221A605A6822F4FE025A604FF488
:10254C001F029A604FF00062034B9A60704700BF05
:10255C00001002400000FFF800ED00E00438704766
:10256C0003681D4A84B093420BD11C4B9A6942F408
:10257C0000629A619B6903F400630093009B04B0B2
:10258C007047B3F1804F0BD103F50433DA6942F095
:10259C000102DA61DB6903F001030193019BEEE7B1
:1025AC000F4A93420AD10D4BDA6942F00202DA610A
:1025BC00DB6903F002030293029BE0E7094A9342B2
:1025CC00DDD1064BDA6942F00402DA61DB6903F013
:1025DC0004030393039BD2E7002C0140001002403C
:1025EC0000040040000800400368124A934206D1E0
:1025FC0002F56442936923F4006393617047B3F16D
:10260C00804F05D10C4AD36923F00103D361704785
:10261C000A4A934205D102F50332D36923F002032F
:10262C00F4E7074A9342F2D102F50232D36923F060
:10263C000403EBE7002C01400010024000040040B2
:10264C0000080040431C10D00C4B984210D007D807
:10265C00B0F1804F0ED0A3F5806398420CD0FEE70A
:10266C00074B9842FBD1192070476FF00D00704753
:10267C001E2070471C2070471D207047000800402A
:10268C00002C0140431C10D00C4B984210D007D8A2
:10269C00B0F1804F0ED0A3F5806398420CD0FEE7CA
:1026AC00074B9842FBD11B2070476FF00D00704711
:1026BC001E2070471C2070471D20704700080040EA
:1026CC00002C014038B50446FFF74AFF0068FFF7BD
:1026DC00B9FFD4E91212FEF7CDF82068FFF7B2FF6C
:1026EC00FEF7F8F822681046FFF7CCFF05461046B7
:1026FC00FFF7A8FF85420BD0D4E912122846FEF74B
:10270C00B9F82068FFF7BEFFBDE83840FEF7E2B825
:10271C0038BD000008B5074B90F8612053F8220033
:10272C00FFF768F900F02200A0F12203584258414B
:10273C0008BD00BF3806002008B5074B90F8612093
:10274C0053F82200FFF756F900F02100A0F1210305
:10275C005842584108BD00BF3806002038B5154610
:10276C000446B8B1C16490F96000FEF7C1F8B4F842
:10277C007230A16E9BB294F861001944064BAAB258
:10278C0053F82000FEF76AFF94F96000BDE838406A
:10279C00FEF7A0B838BD00BF3806002048B1436D25
:1027AC00013306D190F86120024B53F82200FFF759
:1027BC00F1B870473806002048B1436D013306D19B
:1027CC0090F86120024B53F82200FFF7FBB87047DA
:1027DC0038060020436C04381847836C04381847BB
:1027EC0030B5044650F8043985B01D6815F0010564
:1027FC0012D0002200921A6800925B680093009B32
:10280C00FFF788FF40BB0122204604F15E0105B0B2
:10281C00BDE83040FFF70DB9196811F0020106D080
:10282C0001951A6801925B680193019BE8E71A68AD
:10283C0012F0040206D002911A6802925B680293AD
:10284C00029BDDE719680907DAD503921A6803922F
:10285C005B680393039BD3E705B030BD08B5252017
:10286C00FEF76CF8024B1868BDE80840FEF76EBF27
:10287C0038060020262008B5FEF760F8034B586890
:10288C0018B1BDE80840FEF761BF08BD380600204E
:10289C00272008B5FEF752F8034B986818B1BDE82D
:1028AC000840FEF753BF08BD3806002003460A490E
:1028BC0010B508680344EFF30882934205D90C2243
:1028CC004FF0FF30054B1A6010BD054A054C121B2A
:1028DC009342F4D20B60F7E728000020AC080020EC
:1028EC000050002000040000FEE700001622024BFE
:1028FC004FF0FF301A607047AC0800200120704781
:10290C001148854672B6BFF34F8FBFF36F8F71B608
:10291C00002103E00D4B5B58435004310C480D4B28
:10292C0042189A42F6D30C4A02E0002342F8043BC8
:10293C000A4B9A42F9D3FFF7EBFD62B661B600F091
:10294C002DFD00F078F97047005000205439000834
:10295C00000000207C00002080000020B408002033
:10296C00FEE700BE10B594B0142200210CA800F0B4
:10297C00FDFC142200210DEB020000F0F7FC1022EC
:10298C00002101A800F0F2FC02244FF48033012254
:10299C00CDE91143CDE90A234FF4E0130AA80E92B6
:1029AC001393FEF75DFA00B1FEE70F23CDE9053472
:1029BC004FF480630790CDE90830214605A8FEF757
:1029CC0025FC00B1FEE7122301934FF40043CDE93F
:1029DC00033001A8FEF7B6FC00B1FEE714B010BD41
:1029EC002DE9F041C3B2222B0E46904686B041D859
:1029FC00324A00F4E06452F823301C43C4F3031051
:102A0C00FFF75AF90746002831D0B8F1020F45D02C
:102A1C00B8F1030F2A4D04D02A4BB8F1000F18BFA0
:102A2C001D46294B9A6942F001029A619B6903F099
:102A3C0001030193019BA4F10D03012B30D8234A10
:102A4C00536823F0E06343F080635360314602A87F
:102A5C00FFF7E1F8012104F00F04A14038462B46A2
:102A6C0002AA89B2FFF74AFA02A8FFF702F806B0E9
:102A7C00BDE8F08100F0C002C02A0CD1C92B0AD8E5
:102A8C00134B00F03F0253F822200C4B00F4E0648F
:102A9C0053F82230B1E74FF0FF34AFE70D4DC0E7EC
:102AAC000F2C03D0A4F11303012BCFD8074A536882
:102ABC0023F0E06343F00073C7E700BF80380008E1
:102ACC000000211000001110001002400000014015
:102ADC00583800080000311010B50446006800F0AA
:102AEC0061FB204610BD10B50446006808B100F02B
:102AFC0059FB0023C4E90133236010BD38B50446EB
:102B0C000D460068013100F0FBFB10B1C4E9000573
:102B1C00012038BD036810B5044613B143688B42DD
:102B2C0007D22046FFF7EAFF20B1A3680BB9226851
:102B3C001370012010BD70B50E46114604461546A3
:102B4C00FFF7E8FF20B92046FFF7CDFF204670BD08
:102B5C0031462068A56000F047FCF7E738B505461C
:102B6C000C4649B10846FDF7CBFA214602462846E9
:102B7C00FFF7E1FF284638BDFFF7B5FFFAE710B5C0
:102B8C00002304468AB0C4E90033A360084601A9B7
:102B9C0000F047F8204601A9FFF7E0FF20460AB0F5
:102BAC0010BDF0B503468BB0084661B3911E2229C7
:102BBC0035D80A2A06D1002B04DA01275B4201AD75
:102BCC0029460DE00027FAE7B3FBF2F602FB1633B9
:102BDC00092BDCB21BD83033DBB201F8013B334696
:102BEC00002BF1D1A94210D0034617B12D2203F8C6
:102BFC00012B0A465C1EAA420CD84A1B8D4288BF88
:102C0C000022002199540BB0F0BD1E46E3E704F1FD
:102C1C005703E1E712F8016D04F8016FEBE70020B0
:102C2C00F1E7FFF7BEBF08B50320FDF711FEBDE8C5
:102C3C00084000F0F7B808B5AFF30080FDF7F2FCE0
:102C4C00FDF7DAFC00F0E0F8FAE70000C3B2222B43
:102C5C002DE9F0410D462AD8274A00F4E06452F8D9
:102C6C0023301C43621C44D0244EC4F3031756F883
:102C7C00273004F00F0823FA08F3DB0710D52046A1
:102C8C001F49FFF755FB10B12046FFF769F80122E9
:102C9C0056F8273002FA08F223EA020346F82730E6
:102CAC00052D15D8DFE805F015211B1D1F2300F09D
:102CBC00C002C02A1DD1C92B1BD8124B00F03F02F9
:102CCC0053F822200C4B00F4E06453F82230C8E790
:102CDC00FEE700212046BDE8F041FFF739BB10218B
:102CEC00F8E72021F6E70321F4E70121F2E70921B7
:102CFC00F0E7BDE8F08100BF8038000844060020F2
:102D0C005436000858380008C3B2222B16D8174A7C
:102D1C0000F4E06052F823301843C0F30313042B83
:102D2C001FD8134A52F82330124A00F00F0052F801
:102D3C002020C2F30F22B1B11A61704700F0C0021B
:102D4C00C02A0CD1C92B0AD80B4B00F03F0253F808
:102D5C002220064B00F4E06053F82230DCE74FF001
:102D6C00FF300023E0E75A61704700BF803800084D
:102D7C00080000208C35000858380008C2B2222AFE
:102D8C0010B5154900F4E06309D851F8222013431B
:102D9C00C3F30312042A0ED900239B68FFDE00F054
:102DAC00C004C02CF8D1C92AF6D80C4A00F03F0058
:102DBC0052F82020E9E70A4903F00F0351F82220CA
:102DCC009068084AC04352F8233000EA132080B2BE
:102DDC00B0FA80F0400910BD80380008583800085F
:102DEC00080000208C350008FEF7E8BF38B5044613
:102DFC0048B1FEF7E3FF054600F016F8FEF7DEFFDC
:102E0C00431BA342F8D338BD08B5044B2BB104487F
:102E1C0000F00BF808B1AFF3008008BD0000000013
:102E2C0058060020FFF716B87047B0F80431B0F818
:102E3C000021981A00F03F007047B0F80431B0F848
:102E4C0000219BB293421ABFD0F8F830985C4FF037
:102E5C00FF30704790F80231B0F80601C0B28342DF
:102E6C0027BFC3F13F03C018C01A00F1FF307047F1
:102E7C0007B503688DF8071001225B680DF1070197
:102E8C00984703B05DF804FBB0F87210426F10B5B0
:102E9C000A4402F03F02A0F87220B0F87210B0F8A9
:102EAC006E2089B28A421AD0B0F872404032A4B275
:102EBC00B0F87210121B544289B204F03F0402F0B5
:102ECC003F02C1F1400158BF62428A4228BF0A4604
:102EDC0004494267FFF742FC4FF0FF3010BD002061
:102EEC00FCE700BF952E000803682DE9F0479B68AE
:102EFC00044688461646984701232374D4F8E830D4
:102F0C00B4F8029101338246C9F1400904F19407E7
:102F1C0008D194F80C312BB10023384684F80C31CD
:102F2C00FFF73CFC236820469B6898470028F9D0A3
:102F3C0035464D4523D8554521D8B4F80221D4F84F
:102F4C00FC005319402B10442FD82A46414600F060
:102F5C0053FAA946B4F8023138461D4405F03F0532
:102F6C00A4F80251FFF7E8FB30B94A463846164937
:102F7C00C4F80891FFF7F2FB3046BDE8F087D14565
:102F8C0028BFD14623684A4641465B68204698478D
:102F9C00236820469B689847A5EB0905C844B4F8FC
:102FAC0002918246C9F14009C3E7C2F140094A4681
:102FBC00414600F021FAD4F8FC00A5EB090208EB1D
:102FCC00090100F019FAC5E7952E0008037C33B10E
:102FDC00B0F80221B0F806319BB29A42FAD1704790
:102FEC00C0F8EC30009B914208BF4FF0FF31C0F8A5
:102FFC00F03000F11103C0F8F8300023C0E939219A
:10300C0000F15102A0F80431C0E93F23A0F80631C9
:10301C0070470000F7B54FF47A7317460022C0E9E9
:10302C0001231C4B044603604FF0FF33C0F8E8301B
:10303C00194B1A4E9C420D46F06A05D1B36AC4F87E
:10304C00E830C4F8E4000AE01549FFF74AFA854273
:10305C0015D1B36AC4F8E830F36AC4F8E4304FF021
:10306C00FF33012F08BFC4F8E83000932046D4E9A1
:10307C0039214FF0FF33FFF7B3FF03B0F0BD284603
:10308C000849FFF73FFA0649C4F8E8002846FFF75D
:10309C0039FAD6E7143900085806002080380008A1
:1030AC0018360008DC350008D0F8E83010B50133CC
:1030BC0004460ED10368DB68984794F80C3143B989
:1030CC00012304F1940084F80C31BDE81040FFF7A3
:1030DC0073BB10BD10B50446FFF7E6FFB4F804212E
:1030EC00B4F8003192B29A4217BFD4F8F8204FF0DE
:1030FC00FF30D05C01331CBF03F03F03A4F8003158
:10310C0010BD0000002202490248FFF783BF00BF38
:10311C00003801405806002010B50446FFF764FE45
:10312C00E060236820465B699847002808DAFFF7BF
:10313C005BFEE368C01AA3689842F2D34FF0FF30ED
:10314C0010BDF8B507460D460C468E18B44201D199
:10315C00601BF8BD3846FFF7DFFF031EF8DB04F8F1
:10316C00013BF3E72DE9F0410746884616461D461C
:10317C0073B100243846FFF7CFFF031E05DB434530
:10318C0003D033550134A542F4D12046BDE8F0817B
:10319C001C46FAE7024B0146186800F02DB800BF38
:1031AC002C000020024B0146186800F033B900BF18
:1031BC002C00002070B50F4E0C463168054611B935
:1031CC0000F0DCF830602146284600F0D7F8431CAC
:1031DC0003D14FF0FF34204670BDC41C24F003040F
:1031EC00A042F8D0211A284600F0C8F80130F2D1DC
:1031FC00EFE700BF6C0700202DE9F041CD1C25F056
:10320C00030508350C2D38BF0C25002D064601DBB7
:10321C00A94204D90C2333600020BDE8F081314F62
:10322C0000F062F83B681C4644BB29463046FFF769
:10323C00C1FF431C044650D13C682146002941D1B2
:10324C00002C44D02368304604EB030800F096F8B9
:10325C0080453CD1216830466D1A2946FFF7AAFFFC
:10326C00013034D023682B4423603B68002B36D0CC
:10327C005A68A24229D100225A600EE02268521BE1
:10328C001DD40B2A16D96119A342256018BF5960A9
:10329C00636808BF396062514B60304600F02AF811
:1032AC0004F10B00231D20F00700C21AB5D01B1A25
:1032BC00A350B2E7A3426268DED13A60EDE7234641
:1032CC006468B1E70C464968B8E71346CEE70C23AF
:1032DC003046336000F00EF89EE70560DDE75B607A
:1032EC00FFDE00BF70070020014800F07BB800BF74
:1032FC00B0080020014800F076B800BFB0080020EC
:10330C00024B0A460146186800F002B82C00002057
:10331C002DE9F041804615460C4621B91146BDE811
:10332C00F041FFF769BF2AB900F074F80024204679
:10333C00BDE8F08100F0B6F88542064602D8B5EB40
:10334C00500FF4D829464046FFF756FF0746002891
:10335C00ECD0B5422A46214628BF324600F04CF844
:10336C002146404600F056F83C46E0E7034602444E
:10337C00934200D1704703F8011BF9E738B50023DD
:10338C00054D044608462B60FFF790FA431C02D10A
:10339C002B6803B1236038BDAC08002070B5002643
:1033AC000C4D0D4C641BA410A64209D100F0D2F8B0
:1033BC0000260A4D0A4C641BA410A64205D170BD10
:1033CC0055F8043B98470136EEE755F8043B98470F
:1033DC000136F2E738390008383900083839000866
:1033EC004C39000870477047034611F8012B03F85D
:1033FC00012B002AF9D170470A44914200F1FF33A6
:10340C0000D1704710B511F8014B914203F8014FF0
:10341C00F9D110BD38B50546002940D051F8043C0F
:10342C000C1F002BB8BFE418FFF75EFF1C4A136893
:10343C0033B9636014602846BDE83840FFF75ABFC3
:10344C00A34208D9206821188B4201BF19685B6818
:10345C0009182160EDE71A465B680BB1A342FAD953
:10346C0011685018A0420BD12068014450188342B7
:10347C001160E0D118685B68084410605360DAE7AB
:10348C0002D90C232B60D6E7206821188B4201BF90
:10349C0019685B680918216063605460CBE738BD1C
:1034AC007007002051F8043C181F002BBCBF0B58B0
:1034BC00C0187047062008B500F02CF80120FFF763
:1034CC0013FA1F2938B505460C4604D91623036098
:1034DC004FF0FF3038BDC26B12B152F821304BB9EE
:1034EC00284600F031F8224601462846BDE838400F
:1034FC0000F018B8012B0AD0591C03D11623036015
:10350C000120E7E70021204642F8241098470020CC
:10351C00E0E70000024B01461868FFF7D2BF00BF7E
:10352C002C00002038B50023064D044608461146F1
:10353C002B60FFF7DBF9431C02D12B6803B123602E
:10354C0038BD00BFAC080020FFF7D8B908B5FFF7AD
:10355C00B1FF0000F8B500BFF8BC08BC9E46704730
:0C356C00F8B500BFF8BC08BC9E467047D4
:1035780002030405060708090A0B0C0D0E0F1010AC
:103588000000000001010000020200000404000025
:103598000808000010100000202000004040000033
:1035A80080800000010001040200020404000404F9
:1035B8000800080410001004200020044000400403
:1035C80080008004000000000000000001020304E5
:1035D8000607080903000000004400401008000026
:1035E8000A00000000380140100600001700000023
:1035F80000380140100500001B0000000048004092
:1036080010000000FFFFFFFF0000000000000000A6
:1036180002000000004400401208000009000000F9
:103628000038014012060000160000000038014072
:10363800120500001A0000000048004012000000B7
:10364800FFFFFFFF00000000000000000000000076
:10365800000000401280000000010000000000404F
:10366800129000000100000000000040121201004A
:1036780001010000000000401210010002000000DB
:10368800000000401292010002010000000000400A
:103698001291010003000000000000401212020015
:1036A80003010000000000401211020006000000A3
:1036B800000400401295000007000000002C0140A3
:1036C800128D1000070100000004004012150100CF
:1036D80008000000002C0140128E000008010000C4
:1036E800002C0140128D000009000000002C014050
:1036F800120E010009010000002C0140120D01000A
:103708000A000000002C0140128E01000A0100008E
:10371800002C0140128D01000B000000002C01401C
:10372800120E02000B010000002C0140120D0200D5
:103738000F00000000000040129100000F0100007F
:1037480000000040128F000010000000002C014013
:10375800120D110010010000000400401295010034
:103768001002000000040040129401001100000043
:10377800002C0140128D11001101000000040040CE
:103788001215020011020000000400401214020089
:103798001300000000000040121101001301000096
:1037A80000000040120F0100140000000004004057
:1037B80012940000150000000004004012140100DB
:1037C80016000000000800401297000017000000D3
:1037D800000800401217010018000000000800400F
:1037E800129701001900000000080040121702009B
:1037F8001A00000000000040129001001A010000A9
:1038080000000040128F01001B0000000000004073
:10381800121002001B01000000000040120F0200FD
:103828001D000000002C0140128E10001E00000038
:10383800002C0140120E11001F000000002C014056
:10384800128E1100FFFFFFFF0000000000000000C3
:10385800140000001500000016000000170000000A
:1038680018000000190000001A0000001B000000EA
:103878001C0000001D0000001900000018000000D6
:1038880017000000160000001500000014000000DA
:10389800130000000F0000000C0000000B000000E7
:1038A8000A00000009000000080000001F000000D6
:1038B8001E0000001D0000001C0000002D0000007C
:1038C8002E0000002F000000000000000100000092
:1038D80002000000030000000400000005000000D2
:1038E80006000000070000001000000011000000A2
:1038F8001A0000001B000000120000000D0000006C
:103908000E00000000000000000000007D2E0008EE
:10391800F52E0008612E0008D92F0008372E000860
:10392800E1300008472E00084F31000871310008C7
:10393800332C00084101000815070008F91F00088A
:043948001131000831
:08394C001D010008D120000854
:10395400010000001000000000080140000C0140BC
:1039640000100140001401400018014000300240E2
:10397400000000000024F400B808002030000020FB
:103984000000000074070020DC0700204408002029
:103994000000000000000000000000000000000023
:1039A4000000000000000000000000000000000013
:1039B4000000000000000000000000000000000003
:0C39C400000000000000000000000000F7
:040000050800290DB9
:00000001FF
